{
  "contractName": "EternalStorage",
  "abi": [
    {
      "anonymous": false,
      "inputs": [
        {
          "indexed": true,
          "internalType": "address",
          "name": "oldOwner",
          "type": "address"
        },
        {
          "indexed": true,
          "internalType": "address",
          "name": "newOwner",
          "type": "address"
        }
      ],
      "name": "OwnerSet",
      "type": "event"
    },
    {
      "inputs": [
        {
          "internalType": "address",
          "name": "newOwner",
          "type": "address"
        }
      ],
      "name": "changeOwner",
      "outputs": [],
      "stateMutability": "nonpayable",
      "type": "function"
    },
    {
      "inputs": [],
      "name": "getOwner",
      "outputs": [
        {
          "internalType": "address",
          "name": "",
          "type": "address"
        }
      ],
      "stateMutability": "view",
      "type": "function",
      "constant": true
    },
    {
      "inputs": [
        {
          "internalType": "uint256",
          "name": "_dateVal",
          "type": "uint256"
        },
        {
          "internalType": "bytes32",
          "name": "_degdecVal",
          "type": "bytes32"
        },
        {
          "internalType": "bytes32",
          "name": "_digest",
          "type": "bytes32"
        },
        {
          "internalType": "uint8",
          "name": "_hashFunction",
          "type": "uint8"
        },
        {
          "internalType": "uint8",
          "name": "_size",
          "type": "uint8"
        }
      ],
      "name": "setHashValue",
      "outputs": [],
      "stateMutability": "nonpayable",
      "type": "function"
    },
    {
      "inputs": [
        {
          "internalType": "uint256",
          "name": "_dateVal",
          "type": "uint256"
        },
        {
          "internalType": "bytes32",
          "name": "_degdecVal",
          "type": "bytes32"
        }
      ],
      "name": "getHashValue",
      "outputs": [
        {
          "internalType": "bytes32",
          "name": "digest",
          "type": "bytes32"
        },
        {
          "internalType": "uint8",
          "name": "hashfunction",
          "type": "uint8"
        },
        {
          "internalType": "uint8",
          "name": "size",
          "type": "uint8"
        }
      ],
      "stateMutability": "view",
      "type": "function",
      "constant": true
    },
    {
      "inputs": [
        {
          "internalType": "bytes32",
          "name": "_index",
          "type": "bytes32"
        },
        {
          "internalType": "uint256",
          "name": "_val",
          "type": "uint256"
        }
      ],
      "name": "setUintValueB32",
      "outputs": [],
      "stateMutability": "nonpayable",
      "type": "function"
    },
    {
      "inputs": [
        {
          "internalType": "bytes32",
          "name": "_index",
          "type": "bytes32"
        }
      ],
      "name": "getUintValueB32",
      "outputs": [
        {
          "internalType": "uint256",
          "name": "val",
          "type": "uint256"
        }
      ],
      "stateMutability": "view",
      "type": "function",
      "constant": true
    }
  ],
  "bytecode": "0x608060405234801561001057600080fd5b50336000806101000a81548173ffffffffffffffffffffffffffffffffffffffff021916908373ffffffffffffffffffffffffffffffffffffffff16021790555060008054906101000a900473ffffffffffffffffffffffffffffffffffffffff1673ffffffffffffffffffffffffffffffffffffffff16600073ffffffffffffffffffffffffffffffffffffffff167f342827c97908e5e2f71151c08502a66d44b6f758e3ac2f1de95f02eb95f0a73560405160405180910390a36108f6806100db6000396000f3fe608060405234801561001057600080fd5b50600436106100625760003560e01c80633277bd9114610067578063831ec9a214610083578063893d20e8146100b35780639116fbe7146100d1578063a6f9dae1146100ed578063fe49b58214610109575b600080fd5b610081600480360381019061007c91906105ae565b61013b565b005b61009d600480360381019061009891906105ee565b6101e5565b6040516100aa919061062a565b60405180910390f35b6100bb610202565b6040516100c89190610686565b60405180910390f35b6100eb60048036038101906100e691906106da565b61022b565b005b61010760048036038101906101029190610781565b61035a565b005b610123600480360381019061011e91906107ae565b6104a5565b6040516101329392919061080c565b60405180910390f35b60008054906101000a900473ffffffffffffffffffffffffffffffffffffffff1673ffffffffffffffffffffffffffffffffffffffff163373ffffffffffffffffffffffffffffffffffffffff16146101c9576040517f08c379a00000000000000000000000000000000000000000000000000000000081526004016101c0906108a0565b60405180910390fd5b8060026000848152602001908152602001600020819055505050565b600060026000838152602001908152602001600020549050919050565b60008060009054906101000a900473ffffffffffffffffffffffffffffffffffffffff16905090565b60008054906101000a900473ffffffffffffffffffffffffffffffffffffffff1673ffffffffffffffffffffffffffffffffffffffff163373ffffffffffffffffffffffffffffffffffffffff16146102b9576040517f08c379a00000000000000000000000000000000000000000000000000000000081526004016102b0906108a0565b60405180910390fd5b600060405180606001604052808581526020018460ff1681526020018360ff168152509050806001600088815260200190815260200160002060008781526020019081526020016000206000820151816000015560208201518160010160006101000a81548160ff021916908360ff16021790555060408201518160010160016101000a81548160ff021916908360ff160217905550905050505050505050565b60008054906101000a900473ffffffffffffffffffffffffffffffffffffffff1673ffffffffffffffffffffffffffffffffffffffff163373ffffffffffffffffffffffffffffffffffffffff16146103e8576040517f08c379a00000000000000000000000000000000000000000000000000000000081526004016103df906108a0565b60405180910390fd5b8073ffffffffffffffffffffffffffffffffffffffff1660008054906101000a900473ffffffffffffffffffffffffffffffffffffffff1673ffffffffffffffffffffffffffffffffffffffff167f342827c97908e5e2f71151c08502a66d44b6f758e3ac2f1de95f02eb95f0a73560405160405180910390a3806000806101000a81548173ffffffffffffffffffffffffffffffffffffffff021916908373ffffffffffffffffffffffffffffffffffffffff16021790555050565b600080600080600160008781526020019081526020016000206000868152602001908152602001600020604051806060016040529081600082015481526020016001820160009054906101000a900460ff1660ff1660ff1681526020016001820160019054906101000a900460ff1660ff1660ff16815250509050806000015181602001518260400151935093509350509250925092565b600080fd5b6000819050919050565b61055581610542565b811461056057600080fd5b50565b6000813590506105728161054c565b92915050565b6000819050919050565b61058b81610578565b811461059657600080fd5b50565b6000813590506105a881610582565b92915050565b600080604083850312156105c5576105c461053d565b5b60006105d385828601610563565b92505060206105e485828601610599565b9150509250929050565b6000602082840312156106045761060361053d565b5b600061061284828501610563565b91505092915050565b61062481610578565b82525050565b600060208201905061063f600083018461061b565b92915050565b600073ffffffffffffffffffffffffffffffffffffffff82169050919050565b600061067082610645565b9050919050565b61068081610665565b82525050565b600060208201905061069b6000830184610677565b92915050565b600060ff82169050919050565b6106b7816106a1565b81146106c257600080fd5b50565b6000813590506106d4816106ae565b92915050565b600080600080600060a086880312156106f6576106f561053d565b5b600061070488828901610599565b955050602061071588828901610563565b945050604061072688828901610563565b9350506060610737888289016106c5565b9250506080610748888289016106c5565b9150509295509295909350565b61075e81610665565b811461076957600080fd5b50565b60008135905061077b81610755565b92915050565b6000602082840312156107975761079661053d565b5b60006107a58482850161076c565b91505092915050565b600080604083850312156107c5576107c461053d565b5b60006107d385828601610599565b92505060206107e485828601610563565b9150509250929050565b6107f781610542565b82525050565b610806816106a1565b82525050565b600060608201905061082160008301866107ee565b61082e60208301856107fd565b61083b60408301846107fd565b949350505050565b600082825260208201905092915050565b7f43616c6c6572206973206e6f74206f776e657200000000000000000000000000600082015250565b600061088a601383610843565b915061089582610854565b602082019050919050565b600060208201905081810360008301526108b98161087d565b905091905056fea2646970667358221220c547c98d139b6d691475567d653c1c5d7d65c4fecd5e0b11f81361ec3f97ed6e64736f6c63430008100033",
  "immutableReferences": {},
  "source": "// SPDX-License-Identifier: GPL-3.0\n\npragma solidity >=0.7.0 <0.9.0;\n\nimport \"./Owner.sol\";\n\n/** \n * @title EternalStorage\n * @author Jun Lin (@jun-lsh)\n * @dev Storage of IPFS multihash based on project requirements, with ownership checking.\n * Code is adapted from https://github.com/saurfang/ipfs-multihash-on-solidity/blob/master/contracts/IPFSStorage.sol \n*/\n\ncontract EternalStorage is Owner {\n    struct Multihash {\n    bytes32 digest;\n    uint8 hashFunction;\n    uint8 size;\n    }\n\n    mapping(uint => mapping(bytes32 => Multihash)) MultihashStorage;\n\n    function setHashValue(uint _dateVal, bytes32 _degdecVal, \n    bytes32 _digest, uint8 _hashFunction, uint8 _size)\n    public \n    isOwner {\n        Multihash memory entry = Multihash(_digest, _hashFunction, _size);\n        MultihashStorage[_dateVal][_degdecVal] = entry;\n    }\n\n    function getHashValue(uint _dateVal, bytes32 _degdecVal)\n    public\n    view\n    returns(bytes32 digest, uint8 hashfunction, uint8 size) \n    {\n        Multihash memory entry = MultihashStorage[_dateVal][_degdecVal];\n        return (entry.digest, entry.hashFunction, entry.size);\n    }\n\n    mapping(bytes32 => uint) UIntStorageTest;\n\n    function setUintValueB32(bytes32 _index, uint _val)\n    public\n    isOwner {\n        UIntStorageTest[_index] = _val;\n    }\n\n    function getUintValueB32(bytes32 _index)\n    public\n    view\n    returns(uint val)\n    {\n        return UIntStorageTest[_index];\n    }\n\n}",
  "sourcePath": "/home/anon/BigD/Projects/Splash/splash-awards-22/truffle/contracts/EternalStorage.sol",
  "compiler": {
    "name": "solc",
    "version": "0.8.16+commit.07a7930e.Emscripten.clang"
  },
  "schemaVersion": "3.4.9",
  "updatedAt": "2022-09-04T15:28:11.529Z",
  "networkType": "ethereum",
  "devdoc": {
    "author": "Jun Lin (@jun-lsh)",
    "details": "Storage of IPFS multihash based on project requirements, with ownership checking. Code is adapted from https://github.com/saurfang/ipfs-multihash-on-solidity/blob/master/contracts/IPFSStorage.sol ",
    "kind": "dev",
    "methods": {
      "changeOwner(address)": {
        "details": "Change owner",
        "params": {
          "newOwner": "address of new owner"
        }
      },
      "getOwner()": {
        "details": "Return owner address ",
        "returns": {
          "_0": "address of owner"
        }
      }
    },
    "title": "EternalStorage",
    "version": 1
  },
  "userdoc": {
    "kind": "user",
    "methods": {},
    "version": 1
  }
}