{
  "contractName": "EternalStorage",
  "abi": [
    {
      "anonymous": false,
      "inputs": [
        {
          "indexed": true,
          "internalType": "address",
          "name": "oldOwner",
          "type": "address"
        },
        {
          "indexed": true,
          "internalType": "address",
          "name": "newOwner",
          "type": "address"
        }
      ],
      "name": "OwnerSet",
      "type": "event"
    },
    {
      "inputs": [
        {
          "internalType": "address",
          "name": "newOwner",
          "type": "address"
        }
      ],
      "name": "changeOwner",
      "outputs": [],
      "stateMutability": "nonpayable",
      "type": "function"
    },
    {
      "inputs": [],
      "name": "getOwner",
      "outputs": [
        {
          "internalType": "address",
          "name": "",
          "type": "address"
        }
      ],
      "stateMutability": "view",
      "type": "function",
      "constant": true
    },
    {
      "inputs": [
        {
          "internalType": "uint256",
          "name": "_dateVal",
          "type": "uint256"
        },
        {
          "internalType": "bytes32",
          "name": "_degdecVal",
          "type": "bytes32"
        },
        {
          "internalType": "bytes32",
          "name": "_digest",
          "type": "bytes32"
        },
        {
          "internalType": "uint8",
          "name": "_hashFunction",
          "type": "uint8"
        },
        {
          "internalType": "uint8",
          "name": "_size",
          "type": "uint8"
        }
      ],
      "name": "setHashValue",
      "outputs": [],
      "stateMutability": "nonpayable",
      "type": "function"
    },
    {
      "inputs": [
        {
          "internalType": "uint256",
          "name": "_dateVal",
          "type": "uint256"
        },
        {
          "internalType": "bytes32",
          "name": "_degdecVal",
          "type": "bytes32"
        }
      ],
      "name": "getHashValue",
      "outputs": [
        {
          "internalType": "bytes32",
          "name": "digest",
          "type": "bytes32"
        },
        {
          "internalType": "uint8",
          "name": "hashfunction",
          "type": "uint8"
        },
        {
          "internalType": "uint8",
          "name": "size",
          "type": "uint8"
        }
      ],
      "stateMutability": "view",
      "type": "function",
      "constant": true
    }
  ],
  "bytecode": "0x608060405234801561001057600080fd5b50336000806101000a81548173ffffffffffffffffffffffffffffffffffffffff021916908373ffffffffffffffffffffffffffffffffffffffff16021790555060008054906101000a900473ffffffffffffffffffffffffffffffffffffffff1673ffffffffffffffffffffffffffffffffffffffff16600073ffffffffffffffffffffffffffffffffffffffff167f342827c97908e5e2f71151c08502a66d44b6f758e3ac2f1de95f02eb95f0a73560405160405180910390a3610736806100db6000396000f3fe608060405234801561001057600080fd5b506004361061004c5760003560e01c8063893d20e8146100515780639116fbe71461006f578063a6f9dae11461008b578063fe49b582146100a7575b600080fd5b6100596100d9565b6040516100669190610455565b60405180910390f35b6100896004803603810190610084919061051a565b610102565b005b6100a560048036038101906100a091906105c1565b610231565b005b6100c160048036038101906100bc91906105ee565b61037c565b6040516100d09392919061064c565b60405180910390f35b60008060009054906101000a900473ffffffffffffffffffffffffffffffffffffffff16905090565b60008054906101000a900473ffffffffffffffffffffffffffffffffffffffff1673ffffffffffffffffffffffffffffffffffffffff163373ffffffffffffffffffffffffffffffffffffffff1614610190576040517f08c379a0000000000000000000000000000000000000000000000000000000008152600401610187906106e0565b60405180910390fd5b600060405180606001604052808581526020018460ff1681526020018360ff168152509050806001600088815260200190815260200160002060008781526020019081526020016000206000820151816000015560208201518160010160006101000a81548160ff021916908360ff16021790555060408201518160010160016101000a81548160ff021916908360ff160217905550905050505050505050565b60008054906101000a900473ffffffffffffffffffffffffffffffffffffffff1673ffffffffffffffffffffffffffffffffffffffff163373ffffffffffffffffffffffffffffffffffffffff16146102bf576040517f08c379a00000000000000000000000000000000000000000000000000000000081526004016102b6906106e0565b60405180910390fd5b8073ffffffffffffffffffffffffffffffffffffffff1660008054906101000a900473ffffffffffffffffffffffffffffffffffffffff1673ffffffffffffffffffffffffffffffffffffffff167f342827c97908e5e2f71151c08502a66d44b6f758e3ac2f1de95f02eb95f0a73560405160405180910390a3806000806101000a81548173ffffffffffffffffffffffffffffffffffffffff021916908373ffffffffffffffffffffffffffffffffffffffff16021790555050565b600080600080600160008781526020019081526020016000206000868152602001908152602001600020604051806060016040529081600082015481526020016001820160009054906101000a900460ff1660ff1660ff1681526020016001820160019054906101000a900460ff1660ff1660ff16815250509050806000015181602001518260400151935093509350509250925092565b600073ffffffffffffffffffffffffffffffffffffffff82169050919050565b600061043f82610414565b9050919050565b61044f81610434565b82525050565b600060208201905061046a6000830184610446565b92915050565b600080fd5b6000819050919050565b61048881610475565b811461049357600080fd5b50565b6000813590506104a58161047f565b92915050565b6000819050919050565b6104be816104ab565b81146104c957600080fd5b50565b6000813590506104db816104b5565b92915050565b600060ff82169050919050565b6104f7816104e1565b811461050257600080fd5b50565b600081359050610514816104ee565b92915050565b600080600080600060a0868803121561053657610535610470565b5b600061054488828901610496565b9550506020610555888289016104cc565b9450506040610566888289016104cc565b935050606061057788828901610505565b925050608061058888828901610505565b9150509295509295909350565b61059e81610434565b81146105a957600080fd5b50565b6000813590506105bb81610595565b92915050565b6000602082840312156105d7576105d6610470565b5b60006105e5848285016105ac565b91505092915050565b6000806040838503121561060557610604610470565b5b600061061385828601610496565b9250506020610624858286016104cc565b9150509250929050565b610637816104ab565b82525050565b610646816104e1565b82525050565b6000606082019050610661600083018661062e565b61066e602083018561063d565b61067b604083018461063d565b949350505050565b600082825260208201905092915050565b7f43616c6c6572206973206e6f74206f776e657200000000000000000000000000600082015250565b60006106ca601383610683565b91506106d582610694565b602082019050919050565b600060208201905081810360008301526106f9816106bd565b905091905056fea2646970667358221220d1d3748d9dc9dabdb346bb8c492bd7ef94e4fd337c18c7a42c2dca7aa5d3e72764736f6c63430008100033",
  "immutableReferences": {},
  "source": "// SPDX-License-Identifier: GPL-3.0\n\npragma solidity >=0.7.0 <0.9.0;\n\nimport \"./Owner.sol\";\n\n/** \n * @title EternalStorage\n * @author Jun Lin (@jun-lsh)\n * @dev Storage of IPFS multihash based on project requirements, with ownership checking.\n * Code is adapted from https://github.com/saurfang/ipfs-multihash-on-solidity/blob/master/contracts/IPFSStorage.sol \n*/\n\ncontract EternalStorage is Owner {\n    struct Multihash {\n    bytes32 digest;\n    uint8 hashFunction;\n    uint8 size;\n    }\n\n    mapping(uint => mapping(bytes32 => Multihash)) MultihashStorage;\n\n    function setHashValue(uint _dateVal, bytes32 _degdecVal, \n    bytes32 _digest, uint8 _hashFunction, uint8 _size)\n    public \n    isOwner {\n        Multihash memory entry = Multihash(_digest, _hashFunction, _size);\n        MultihashStorage[_dateVal][_degdecVal] = entry;\n    }\n\n    function getHashValue(uint _dateVal, bytes32 _degdecVal)\n    public\n    view\n    returns(bytes32 digest, uint8 hashfunction, uint8 size) \n    {\n        Multihash memory entry = MultihashStorage[_dateVal][_degdecVal];\n        return (entry.digest, entry.hashFunction, entry.size);\n    }\n\n    // mapping(bytes32 => uint) UIntStorageTest;\n\n    // function setUintValueB32(bytes32 _index, uint _val)\n    // public\n    // isOwner {\n    //     UIntStorageTest[_index] = _val;\n    // }\n\n    // function getUintValueB32(bytes32 _index)\n    // public\n    // view\n    // returns(uint val)\n    // {\n    //     return UIntStorageTest[_index];\n    // }\n\n}",
  "sourcePath": "/home/anon/BigD/Projects/Splash/splash-awards-22/truffle/contracts/EternalStorage.sol",
  "compiler": {
    "name": "solc",
    "version": "0.8.16+commit.07a7930e.Emscripten.clang"
  },
  "schemaVersion": "3.4.9",
  "updatedAt": "2022-10-24T07:42:16.172Z",
  "networkType": "ethereum",
  "devdoc": {
    "author": "Jun Lin (@jun-lsh)",
    "details": "Storage of IPFS multihash based on project requirements, with ownership checking. Code is adapted from https://github.com/saurfang/ipfs-multihash-on-solidity/blob/master/contracts/IPFSStorage.sol ",
    "kind": "dev",
    "methods": {
      "changeOwner(address)": {
        "details": "Change owner",
        "params": {
          "newOwner": "address of new owner"
        }
      },
      "getOwner()": {
        "details": "Return owner address ",
        "returns": {
          "_0": "address of owner"
        }
      }
    },
    "title": "EternalStorage",
    "version": 1
  },
  "userdoc": {
    "kind": "user",
    "methods": {},
    "version": 1
  }
}